:020000040800F2
:1000000058160020C901000835100008510D0008DD
:1000100031100008850700082127000800000000B3
:10002000000000000000000000000000A91200080D
:10003000B30900080000000019110008BD130008F2
:10004000E3010008E3010008E3010008E301000800
:10005000E3010008E3010008B5090008E301000816
:10006000E3010008E3010008CD090008E3010008EE
:10007000E3010008E3010008E3010008E3010008D0
:10008000E301000889070008E3010008E301000814
:10009000E3010008E3010008E3010008190A000871
:1000A000E301000845140008E3010008E30100082B
:1000B000E3010008D1140008E3010008E30100088F
:1000C000E3010008E3010008E3010008E301000880
:1000D000E3010008A11D0008211E00089924000862
:1000E000E3010008E3010008E301000800F002F862
:1000F00000F05AF80AA090E8000C82448344AAF168
:100100000107DA4501D100F04FF8AFF2090EBAE865
:100110000F0013F0010F18BFFB1A43F0010318473B
:10012000304E0000504E00000A444FF0000C10F812
:10013000013B13F0070408BF10F8014B1D1108BF65
:1001400010F8015B641E05D010F8016B641E01F805
:10015000016BF9D113F0080F1EBF10F8014BAD1C55
:100160000C1B09D16D1E58BF01F801CBFAD505E073
:1001700014F8016B01F8016B6D1EF9D59142D6D3CD
:10018000704700000023002400250026103A28BFF5
:1001900078C1FBD8520728BF30C148BF0B607047F9
:1001A0001FB51FBD10B510BD00F031F81146FFF7A7
:1001B000F7FF02F064FE00F04FF803B4FFF7F2FF20
:1001C00003BC00F057F80000094880470948004781
:1001D000FEE7FEE7FEE7FEE7FEE7FEE7FEE7FEE7F7
:1001E000FEE7FEE704480549054A064B7047000054
:1001F000C1130008ED000008581000205816002018
:1002000058120020581200207047704770477546FA
:1002100000F02CF8AE4605006946534620F0070072
:10022000854618B020B5FFF7DDFFBDE820404FF050
:1002300000064FF000074FF000084FF0000B21F0D0
:100240000701AC46ACE8C009ACE8C009ACE8C0099D
:10025000ACE8C0098D46704710B50446AFF3008086
:100260002046BDE81040FFF7A8BF000000487047D7
:10027000F80F002001491820ABBEFEE7260002005F
:10028000704700004FEA404000F18040810028BFE5
:10029000C0F100404000DFF860C0C0F3895109B3ED
:1002A0005CF82120C1F500715CF821304FEA802113
:1002B000DFF848C0A1FB0CC14FEA11214FF000004C
:1002C0001044A0FB01C04FEA5000A3EB0000A0FBCC
:1002D00001C010444FEA500028BF4042001440F1D2
:1002E00000007047DFF818C0A0FB0CC04FEAD03008
:1002F00028BF4042704700000C390008A2DA0FC93D
:1003000037CD0FC991F0000F04BF6FF00040704768
:1003100010B54FF0010E90EA010F48BF4FF0000EEC
:10032000002848BF4042002948BF4942B0FA80F443
:100330000F2CA8BF0F2400FA04F2C4F10F0CB2FB7B
:10034000F1F0B0FA80F39C45A4BFCEF1004010BD9F
:1003500001FB1022B2FA82F464450EDAACEB040C15
:1003600002FA04F200FA04F0B2FBF1F301FB1322EB
:100370001844B2FA82F46445F0DD02FA0CF200FA95
:100380000CF0B2FBF1F318449EF0000F08BF40429E
:1003900010BD000080FB01014FEAD03000EB41406E
:1003A000704700004FEA4040810028BFC0F1004084
:1003B0004000DFF860C0C0F3895109B35CF8212028
:1003C000C1F500715CF821304FEA8021DFF848C0A8
:1003D000A1FB0CC14FEA11214FF000001044A0FB1B
:1003E00001C04FEA5000A3EB0000A0FB01C0104485
:1003F0004FEA500028BF4042001440F1000070470F
:10040000DFF818C0A0FB0CC04FEAD03028BF404234
:10041000704700000C390008A2DA0FC937CD0FC9A8
:1004200078B110F0004148BF4042B0FA80F3C3F108
:100430008F0200FA03F04FEA102062F3DE5041EA27
:100440000000704721B1826842F00102826003E03F
:10045000826822F0010282607047000010B50446F5
:100460001248844208D10121401500F0A3FE00216A
:10047000601500F09FFE17E00D48844208D101216D
:10048000001500F097FE0021201500F093FE0BE010
:100490000848844208D10121C80300F08BFE0021E6
:1004A0004FF4004000F086FE10BD00000024014023
:1004B00000280140003C0140014600208A6802F00B
:1004C00004020AB1012000E0002070470146C86C18
:1004D00080B270470246002013680B400BB1012028
:1004E00000E000207047014600208A6802F0080200
:1004F0000AB1012000E000207047000030B502463C
:100500000020002350680F4C20400D790C6844EA0D
:1005100005242043506090680B4C2040D1E90254E0
:100520002C434D7944EA450420439060D06A20F47E
:1005300070000C7C641EE4B2234340EA0350D06296
:1005400030BD0000FFFEF0FFFDF7F1FFF0B50446FF
:100550000D4600200021092D11DDE068A5F10A06F5
:1005600006EB4607072606FA07F18843A5F10A06B7
:1005700006EB460603FA06F10843E0600CE020694A
:1005800005EB4507072606FA07F1884305EB450604
:1005900003FA06F108432061072A0FDA606B561E42
:1005A00006EB86071F2606FA07F18843561E06EB60
:1005B000860605FA06F10843606322E00D2A0FDA89
:1005C000206BD61F06EB86071F2606FA07F1884325
:1005D000D61F06EB860605FA06F10843206310E0F5
:1005E000E06AA2F10D0606EB86071F2606FA07F160
:1005F0008843A2F10D0606EB860605FA06F10843CC
:10060000E062F0BD816841F008018160704721B16E
:10061000826842F4A002826003E0826822F4A002B1
:1006200082607047816841F00401816070472DE964
:10063000F04106460F4614461D4600F051FC0021CD
:1006400041EA4601C8B200F01FFC00F08FFC20B167
:1006500000F06AFC0120BDE8F081384600F014FC8F
:1006600000F084FC00F03CFC012101EB4601C8B223
:1006700000F00AFC00F07AFC0DE0012C04D100200F
:1006800000F0CEFB287003E0012000F0C9FB2870C9
:10069000601EC4B26D1C002CEFD100F045FC0020A0
:1006A000D9E7000000B587B0012140F2046000F0F6
:1006B00071FD4FF4004000F031FD1220ADF8040050
:1006C00000208DF8070001A92B4800F07FFA2B4885
:1006D000FFF7C4FE2A48FFF7C1FE002002908DF804
:1006E0000C008DF80D004FF4602004900020059060
:1006F00001208DF8180002A92048FFF7FFFE002016
:1007000002908DF80C008DF80D004FF460200490DD
:100710000020059001208DF8180002A91848FFF765
:10072000EDFE01211548FFF78DFE01211448FFF76A
:1007300089FE1248FFF766FF1148FFF763FF00BF0D
:100740000E48FFF7D0FE20B10D48FFF7CCFE002881
:10075000F6D10A48FFF766FF0948FFF763FF00BFBD
:100760000648FFF7A9FE20B10548FFF7A5FE0028BF
:10077000F6D107B000BD0000000801400024014090
:100780000028014000BFFEE710B54FF0007000F0F8
:10079000D1F850B14FF0007000F00CF8012003497F
:1007A00008700021024800F013F810BD6601002017
:1007B0008000024000F0805111B10349086001E05F
:1007C00002494860704700000404024000000240F3
:1007D00021B1026842F00102026004E002684FF6B3
:1007E000FE731A400260704701684FF6FE721140B6
:1007F00001600021016041608160C1604B49884215
:1008000008D14A490839496841F00F01474A083A76
:1008100051608AE045491431884208D1434908397A
:10082000496841F0F001414A083A51607DE03F4992
:100830002831884208D13D490839496841F470613E
:100840003A4A083A516070E038493C31884208D150
:1008500036490839496841F47041344A083A5160D0
:1008600063E032495031884208D13049083949683B
:1008700041F470212D4A083A516056E02B49643109
:10088000884208D129490839496841F47001274A4A
:10089000083A516049E025497831884208D1234916
:1008A0000839496841F07061204A083A51603CE0DB
:1008B0001F49884206D1011F096841F00F01021F3C
:1008C000116032E01A491431884208D11849091FD1
:1008D000096841F0F001164A121F116025E0144921
:1008E0002831884208D11249091F096841F4706112
:1008F0000F4A121F116018E00D493C31884208D19F
:100900000B49091F096841F47041094A121F11601F
:100910000BE007495031884207D10549091F096892
:1009200041F47021024A121F116070470800024012
:100930000804024001460020002201F0805313B158
:10094000054B1A6801E0054B1A6802EA01030BB176
:10095000012000E000207047000402400000024037
:100960001AB103680B43036002E003688B43036022
:10097000704710B50022026847F6F0739A430C6A7C
:100980008B6823430C6923434C6923438C692343BD
:10099000CC6923434C6A23438C6A23431A43026085
:1009A000CB6843600B6883604B68C36010BD4160D7
:1009B0007047704710B5012000F03EF8642002F047
:1009C000F1F80148006810BD0081214210B51420E3
:1009D00002F0E8F80D480068A0B900200C49086250
:1009E00088620C480068B0F5004F06DA09480068D4
:1009F00000F6CC400749086002E000200549086085
:100A000001F064FF102000F017F810BD10812142A2
:100A1000800000202000002010B5142002F0C2F851
:100A20000448006808B901F06BFF202000F004F8CA
:100A300010BD000014812142014908607047000088
:100A400014040140002123498279002A3AD00A4641
:100A5000126803689A430B461A600A1D12680368FD
:100A60009A430B1D1A60027911440A6803681A43FD
:100A70000A60184A0832126803689A43154B083313
:100A80001A601A1D126803689A43124B0C331A60DD
:100A90004279102A0ED11A1F126803681A430D4BAF
:100AA00008331A601A1D126803681A43094B0C3385
:100AB0001A600DE00749427911440A6803681A4335
:100AC0000A6005E0027911440A6803689A430A60E3
:100AD00070470000000401400EB50121092000F01C
:100AE00059FB012000F0A7FA3120ADF808000420DE
:100AF0008DF80B0002A9144800F068F804210120C9
:100B000000F044F81020009000208DF804000C2024
:100B10008DF8050001208DF806006846FFF792FF6A
:100B20000521012000F032F82020009000208DF8EF
:100B300004000C208DF8050001208DF806006846A1
:100B4000FFF780FF0EBD0000000C014001B50A2038
:100B50008DF8000002208DF8010000208DF80200C1
:100B600001208DF80300684600F094FA17208DF8F4
:100B7000000002208DF8010001208DF802008DF8A0
:100B80000300684600F086FA08BD000030B5002278
:100B90008B071C0F0F2303FA04F20B4B8C1053F836
:100BA00024309343084C8D1044F8253023468C1094
:100BB00053F824308C07240F00FA04F42343024C2A
:100BC0008D1044F8253030BD080001402DE9F0417A
:100BD000024600250026002000230024002791F86B
:100BE00003C00CF00F0591F803C00CF0100CBCF121
:100BF000000F03D091F802C04CEA050591F800C03F
:100C0000BCF1000F31D0146800202BE04FF0010C34
:100C10000CFA00F3B1F800C00CEA03069E4220D1A2
:100C200083004FF00F0C0CFA03F7BC4305FA03FCEA
:100C30004CEA040491F803C0BCF1280F06D14FF030
:100C4000010C0CFA00FCC2F814C00AE091F803C0D1
:100C5000BCF1480F05D14FF0010C0CFA00FCC2F8B2
:100C600010C0401C0828D1D31460B1F800C0BCF1FA
:100C7000FF0F34DD546800202EE000F1080C4FF027
:100C8000010808FA0CF3B1F800C00CEA03069E4212
:100C900021D183004FF00F0C0CFA03F7BC4305FA87
:100CA00003FC4CEA040491F803C0BCF1280F05D101
:100CB00000F1080C08FA0CF8C2F8148091F803C08F
:100CC000BCF1480F07D100F1080C4FF0010808FAF9
:100CD0000CF8C2F81080401C0828CED35460BDE840
:100CE000F08141617047000010B5044607230122DE
:100CF00021460948FFF72AFC01210748FFF787FC36
:100D000000BF02210448FFF7E5FB0028F9D00248A4
:100D1000FFF7DCFB10BD00000024014010B50446C5
:100D20000723012221460948FFF710FC012107484B
:100D3000FFF76DFC00BF02210448FFF7CBFB002842
:100D4000F9D00248FFF7C2FB10BD000000280140A7
:100D500000BFFEE710B500200D4908600D4800688F
:100D600020F070400B4908600846006840F0405091
:100D7000086000200849C1F89C010120044908606E
:100D800001F036FF00200449C1F8980110BD0000B1
:100D900098812142000C01400080214208B50121C8
:100DA000082000F0F7F9C020ADF8000010208DF801
:100DB000030003208DF8020069460548FFF706FF8F
:100DC0000120044908600449C1F89C0108BD0000E5
:100DD000000C0140988121420080214210B5002082
:100DE0000C4908600C48006820F070400A4908600F
:100DF0000846006840F04050086001200749C1F8EB
:100E00009C010449086001F0F3FE00200349C1F889
:100E1000980110BD98812142000C014000802142C0
:100E200070B5054600241548006820F0704013494D
:100E300008600846006840F000400860002613E0A3
:100E400000200F490860012001F0D2FE01200D4969
:100E5000C1F898016006040E09487C38006808B1A2
:100E6000601CC4B2701CC6B2082EE9DB15B9FFF7CE
:100E7000B5FF01E0FFF76EFF204670BD000C01409A
:100E8000988121420080214270B5044611480068D3
:100E900020F070400F4908600846006840F040505C
:100EA000086000200C490860002510E0E0090A49AC
:100EB000091D08606006040E01200849C1F8980168
:100EC00001F096FE002004490860681CC5B2082D98
:100ED000ECDB70BD000C0140988121420080214272
:100EE00010B50E48006820F070400C4908600846B4
:100EF000006840F040500860012009490860094935
:100F0000C1F89801002006490860012001F070FE38
:100F100000200449C1F8980110BD0000000C0140F8
:100F20009C8121420080214210B50D48006820F0CC
:100F300070400B4908600846006840F04050086067
:100F40000020084908600849C1F89C01012001F00F
:100F50004FFE0120034908600349C1F89C0110BD00
:100F6000000C0140988121420080214210B50024EC
:100F70001148006820F070400F490860084600687A
:100F800040F00040086001200C4908600C49C1F89D
:100F9000980107E0601CC4B2052C03DDFFF7C4FF15
:100FA000012010BD0548803800680028F2D10349AF
:100FB000091F086000BFF4E7000C01409C8121423A
:100FC00000802142014601F50041481070470000B1
:100FD00008B50121142000F0DDF84FF40260ADF8EF
:100FE000000010208DF8030003208DF802006946F0
:100FF0000D48FFF7EBFD4FF402610B48FFF771FE60
:101000004FF4C040ADF8000010208DF8030003201D
:101010008DF8020069460548FFF7D8FD4FF4C0413E
:101020000248FFF75EFE08BD0008014000100140C5
:1010300000BFFEE7704738B504464FF4806000F00B
:1010400061F8012C02D10098FFF780FD022C02D13B
:10105000009800F0DDFB032C02D1009800F0CEFEDA
:10106000042C02D1009800F0F7FE052C02D1009864
:1010700000F0BEFB062C02D1009801F03DFA072CCF
:1010800002D1009800F014FA082C02D1009800F068
:10109000C7F938BD70B5002100230F22C47804B30E
:1010A000154C246804F4E064C4F5E064210AC1F13D
:1010B0000403CA40447804FA03F1847814402143BD
:1010C00009010E4C0678A155047804F01F0501248F
:1010D000AC4005786D11AD0005F1E025C5F8004183
:1010E00009E0047804F01F050124AC40044D0678A3
:1010F000761145F8264070BD0CED00E000E400E0FC
:1011000080E100E002490143024A1160704700009B
:101110000000FA050CED00E07047000001460020D9
:10112000034A506820F44040084350607047000074
:101130000010024029B1064A52690243044B5A6129
:1011400004E0034A52698243014B5A617047000030
:101150000010024029B1064AD2690243044BDA6109
:1011600004E0034AD2698243014BDA617047000010
:101170000010024029B1064A12690243044B1A6169
:1011800004E0034A12698243014B1A617047000070
:101190000010024029B1064A92690243044B9A6149
:1011A00004E0034A92698243014B9A617047000050
:1011B0000010024029B1064AD2680243044BDA60AB
:1011C00004E0034AD2688243014BDA6070470000B2
:1011D0000010024030B500210022002400232D4DD4
:1011E0006D6805F00C0121B1042905D0082923D12F
:1011F00005E0294D056022E0274D05601FE0254DE3
:101200006D6805F47012234D6D6805F48034022575
:1012100005EB92421CB9214D554305600BE01D4D75
:101220006D6805F400351DB11C4D5543056002E0A5
:10123000194D5543056002E0174D056000BF00BF22
:10124000144D6D6805F0F0010909154D6B5C0568DA
:10125000DD4045600F4D6D6805F4E061090A104DF1
:101260006B5C4568DD4085600A4D6D6805F4605132
:10127000C90A0B4D6B5C4568DD40C560054D6D6866
:1012800005F44041890B074D6B5CC568B5FBF3F570
:10129000056130BD0010024000127A0000093D00D7
:1012A0006701002077010020704710B500F002F8B8
:1012B00010BD00000CB5002001900090334800687C
:1012C00040F480303149086000BF3048006800F4C5
:1012D000003000900198401C0190009818B90198C6
:1012E000B0F5A06FF1D12948006800F4003010B1CA
:1012F0000120009001E0002000900098012843D1D7
:101300002348006840F01000214908600846006842
:1013100020F0030008600846006840F00200086002
:101320001A484068194948600846406848600846BD
:10133000406840F4806048600846406820F47C10B3
:1013400048600846406840F4E81048600846006875
:1013500040F08070086000BF0C48006800F000702A
:101360000028F9D00948406820F003000749486088
:101370000846406840F00200486000BF03484068EB
:1013800000F00C000828F9D10CBD0000001002404C
:1013900000200240042808D14FF0E021096941F003
:1013A00004014FF0E022116107E04FF0E0210969EC
:1013B00021F004014FF0E0221161704770470000F6
:1013C00010B51348006840F0010011490860084654
:1013D0004068104908400E494860084600680E49B8
:1013E00008400B4908600846006820F48020086027
:1013F0000846406820F4FE0048604FF41F008860F3
:10140000FFF753FF4FF000600449086010BD000073
:10141000001002400000FFF8FFFFF6FE08ED00E0BC
:1014200001B519208DF8000001208DF80100002081
:101430008DF8020001208DF803006846FFF72AFEB0
:1014400008BD000010B50121164800F02DFB20B3A7
:101450000120154908601548007800F0010018B116
:10146000002001F029FD15E010480078C0F3C0000D
:1014700080B90E480078C0F3800010B101F00CFC78
:1014800008E0002008491831086001F0F9FE00204A
:1014900001F012FD0020044908600121014800F01C
:1014A000F0F910BD002C01409401214214000020ED
:1014B00001B51C208DF8000001208DF801008DF889
:1014C00002008DF803006846FFF7E4FD08BD000048
:1014D0002DE9F05F002401219F4800F0E5FA002883
:1014E0007ED09E480068C0439D49C1F8B4019D4824
:1014F0000078012804D0022844D0032871D186E066
:1015000099490868FEF78CFF8346984903F0DEFB93
:101510008246964903F06AFA814603F08BFB85B256
:101520009349C868FEF77CFF8346904903F0CEFBE1
:1015300082468E4903F05AFA814603F07BFB86B25D
:101540008C490868FEF76CFF8346884903F0BEFBB0
:101550008246864903F04AFA814603F06BFB87B264
:1015600083490869FEF75CFF8346804903F0AEFBC0
:1015700082467E4903F03AFA814603F05BFB1FFA8C
:1015800080F8C8E07C490868FEF74AFF834677493F
:1015900003F09CFB8246754903F028FA814603F06C
:1015A00049FB85B274494868FEF73AFF83466F49A4
:1015B00003F08CFB82466D4903F018FA814603F074
:1015C00039FB86B26B490868FEF72AFF83466749F4
:1015D00003F07CFB8246654903F008FA814601E08E
:1015E000B4E056E003F026FB87B261490869FEF7D4
:1015F00017FF83465D4903F069FB82465B4903F0B0
:10160000F5F9814603F016FB1FFA80F883E05B4989
:101610000868FEF705FF8346544903F057FB8246EE
:10162000524903F0E3F9814603F004FB85B25349C4
:101630004868FEF7F5FE83464C4903F047FB8246B7
:101640004A4903F0D3F9814603F0F4FA86B24A49D5
:101650000868FEF7E5FE8346444903F037FB8246FF
:10166000424903F0C3F9814603F0E4FA87B24249E4
:101670004868FEF7D5FE83463C4903F027FB8246C7
:101680003A4903F0B3F9814603F0D4FA1FFA80F81F
:1016900041E035490868FEF7C3FE8346334903F04D
:1016A00015FB8246314903F0A1F9814603F0C2FAE5
:1016B00085B22F49C868FEF7B3FE83462B4903F075
:1016C00005FB8246294903F091F9814603F0B2FAFD
:1016D00086B228490868FEF7A3FE8346234903F033
:1016E000F5FA8246214903F081F9814603F0A2FA16
:1016F00087B21F490869FEF793FE83461B4903F032
:10170000E5FA8246194903F071F9814603F092FA2D
:101710001FFA80F800BF00BF5520194908702C46F9
:10172000201248708C7034462012C8700C713C46F0
:10173000201248718C7144462012C8710C72FF202F
:1017400048720A200F49088002F0CCF801210248B3
:1017500000F097F8BDE8F09F00040040B401224279
:101760000000224215000020B000002000007A4452
:1017700060090020E000002010010020800000200F
:10178000BA0C0020640100203EB505460C4601213C
:101790000220FFF7DFFC01210420FFF7FBFC681E9D
:1017A00080B2ADF80400601E80B2ADF800000020E9
:1017B000ADF80600ADF8020069460C4800F09EFA4C
:1017C0000520FFF738FC0121084800F05AF80122F3
:1017D0001146064800F079F90121044800F029F883
:1017E0000121024800F050F83EBD00000004004016
:1017F00001B51D208DF8000002208DF801008DF844
:10180000020001208DF803006846FFF743FC08BD85
:1018100001B51E208DF8000001208DF80100022086
:101820008DF8020001208DF803006846FFF732FCB6
:1018300008BD21B1028842F08002028004E00288E3
:101840004FF67F731A40028070470A884B881A430C
:101850008B881A43CB881A430B891A434B891A4346
:101860008B891A43A0F84420704721B1828842F046
:101870000102828004E082884FF6FE731A40828063
:101880007047CA430282704721B1028842F00102C8
:10189000028004E002884FF6FE731A40028070470F
:1018A00031B1B0F8442042F40042A0F8442005E0F1
:1018B000B0F84420C2F30E02A0F8442070470000A4
:1018C00010B504466848844208D10121C014FFF7CE
:1018D00071FC0021E014FFF76DFCC4E0B4F1804F0F
:1018E00008D101210846FFF745FC00210120FFF740
:1018F00041FCB8E05D48844208D101210220FFF795
:1019000039FC00210220FFF735FCACE05848844246
:1019100008D101210420FFF72DFC00210420FFF74E
:1019200029FCA0E05348844208D101210820FFF798
:1019300021FC00210820FFF71DFC94E04E48844262
:1019400008D101211020FFF715FC00211020FFF71E
:1019500011FC88E04948844208D101212020FFF78A
:1019600009FC00212020FFF705FC7CE0444884426C
:1019700008D101214014FFF71DFC00216014FFF77E
:1019800019FC70E03F48844209D10121C804FFF7E7
:1019900011FC00214FF40020FFF70CFC63E03A48F3
:1019A000844209D101210805FFF704FC00214FF40E
:1019B0008010FFF7FFFB56E03448844209D1012133
:1019C0004805FFF7F7FB00214FF40010FFF7F2FB8B
:1019D00049E02F48844208D101214020FFF7CAFB8B
:1019E00000214020FFF7C6FB3DE02A48844208D191
:1019F00001218020FFF7BEFB00218020FFF7BAFB0A
:101A000031E02548844208D101218015FFF7B2FB5F
:101A10000021A015FFF7AEFB25E02048844209D144
:101A200001210804FFF7C6FB00214FF48030FFF7C7
:101A3000C1FB18E01A48844209D101214804FFF78C
:101A4000B9FB00214FF40030FFF7B4FB0BE0154861
:101A5000844208D101218804FFF7ACFB00214FF438
:101A60008020FFF7A7FB10BD002C014000040040C0
:101A700000080040000C004000100040001400402E
:101A800000340140004C014000500140005401402E
:101A900000180040001C00400020004000400140B1
:101AA000004401400048014030B5024600200023B8
:101AB0000024158A05EA0103958905EA010413B19A
:101AC0000CB1012000E0002030BD1AB183890B4326
:101AD000838102E083898B438381704770B5002442
:101AE00000220023058C4FF6FE7635400584028CDB
:101AF0008388048B4FF68F752C40B51E2C400D88C3
:101B00002C43751E2A400D892A434D882A43144DC3
:101B1000A8420BD0134DA84208D0134DA84205D0BF
:101B2000124DA84202D0124DA84213D14FF6F775BC
:101B30002A404D892A434FF6FB752A408D882A4357
:101B40004FF6FF652B404FF6FF552B408D892B43F9
:101B5000CD892B4383800483CD888586028470BD24
:101B6000002C01400034014000400140004401408D
:101B7000004801400A460021018B4FF6F7731940D7
:101B8000114301837047000070B500240022002338
:101B9000058C4FF6EF7635400584028C8388048BE4
:101BA00048F6FF752C404FF6FF452C400D884FF648
:101BB000FF7606EA05252C434FF6DF752A400D898E
:101BC00006EA05152A434D8806EA05152A43154DF0
:101BD000A84202D0144DA8421DD14FF67F752A406D
:101BE0004D894FF6FF7606EA05152A434FF6BF7575
:101BF0002A408D8806EA05152A434FF6FF352B400B
:101C00004FF2FF752B408D8906EA85052B43CD8960
:101C100006EA85052B4383800483CD8805870284EB
:101C200070BD0000002C0140003401400A46002134
:101C3000018B4FF2FF7319404FF6FF7303EA022343
:101C4000194301837047000070B50024002200236F
:101C5000058C4FF6FF6635400584028C8388848BA3
:101C60004FF68F752C404FF6FC752C400D882C4399
:101C70004FF6FF552A400D894FF6FF7606EA0525F7
:101C80002A434D8806EA05252A43154DA84202D06D
:101C9000144DA8421DD14FF2FF752A404D894FF6D1
:101CA000FF7606EA05252A434FF6FF352A408D8840
:101CB00006EA05252A434EF6FF752B404DF6FF75C3
:101CC0002B408D8906EA05152B43CD8906EA0515BB
:101CD0002B4383808483CD888587028470BD000078
:101CE000002C0140003401400A460021818B4FF650
:101CF000F773194011438183704700000022028866
:101D00001D4B98420ED01D4B98420BD0B0F1804F26
:101D100008D01B4B984205D01A4B984202D01A4B60
:101D2000984204D14FF68F731A404B881A43174BD1
:101D3000984207D0164B984204D04FF6FF431A4002
:101D4000CB881A4302808B8883850B8803850A4BD6
:101D500098420BD0094B984208D00E4B984205D0C0
:101D60000D4B984202D00D4B984201D10B7A03865D
:101D70000123838270470000002C014000340140A1
:101D80000004004000080040000C0040001000402B
:101D90000014004000400140004401400048014060
:101DA00070B513480088C4B21148001D0088C5B240
:101DB00004F0200068B140F225510D4800F0D1FB3D
:101DC0000C4801780078401C0A4A10700A484554B3
:101DD0000CE004F0100048B140F22441044800F047
:101DE000C0FB00F01BF800200249087070BD000025
:101DF00000380140040000209401002001B5252096
:101E00008DF8000000208DF8010001208DF80200FF
:101E10008DF803006846FFF73DF908BD70470000E4
:101E200010B540F224410A4800F0BFFB78B100BF72
:101E300007480088C4B20648001D0088C4B20021CB
:101E40000448FEF7C5FC00F019F801F039FD10BD9B
:101E5000004400406C00024001B526208DF80000CF
:101E600000208DF8010002208DF8020001208DF87D
:101E700003006846FFF70EF908BD00002DE9F05F8A
:101E8000F748007855287DD1F5484078AA28FAD13E
:101E9000F448007800F0010090B94FF000090CE020
:101EA000F1480068C043F149C1F8B401142000F0C2
:101EB00079FE09F101001FFA80F9B9F10A0FEFDB91
:101EC00000F0B6FCE6488078102822D2DFE800F067
:101ED0002108223CF3F284CCF1F0EFEEEDECEBEADA
:101EE000DF480079DE49C97800EB012084B2204642
:101EF00002F054FB82460022DD4B02F0B1F90546A8
:101F00000022DC4B02F05EFB074602F001FBDA49DF
:101F1000C860AFE2D2480079D149C97800EB01200E
:101F200084B2204602F03AFB82460022D04B02F0F7
:101F300097F907460022CF4B02F044FB054602F01A
:101F4000E7FACD49086195E2C5480079C449C978E6
:101F500000EB012084B2A4F57A7002F008FB07467A
:101F60000022C34B02F07CF905460022C14B02F06F
:101F700029FB824602F0CCFAB0F5004F03DD4FF4A6
:101F8000004026E077E2A4F57A7002F0F0FA82468B
:101F90000022B74B02F064F907460022B54B02F06D
:101FA00011FB054602F0B4FA002801DA002010E027
:101FB000A4F57A7002F0DBFA82460022AC4B02F004
:101FC0004FF907460022AB4B02F0FCFA054602F03F
:101FD0009FFAAA4908604DE2A1480079A049C97852
:101FE00000EB012084B2A4F57A7002F0C0FA074633
:101FF00000229F4B02F034F9824600229D4B02F0F2
:10200000E1FA054602F084FAB0F5004F02DD4FF424
:10201000004026E0A4F57A7002F0A9FA07460022F3
:10202000934B02F01DF905460022924B02F0CAFACA
:10203000824602F06DFA10F5004F01DA904810E088
:10204000A4F57A7002F093FA07460022884B02F05A
:1020500007F905460022874B02F0B4FA824602F0E7
:1020600057FA8849086005E27D4800797C49C978BB
:1020700000EB012084B2A4F57A7002F078FA0746EA
:1020800000227B4B02F0ECF805460022794B02F06F
:1020900099FA824602F03CFAB0F5004F0CDD4FF49D
:1020A000004030E0D9E1BEE1A3E15EE119E1B9E031
:1020B00074E02BE0DBE1D7E1A4F57A7002F057FA87
:1020C000824600226A4B02F0CBF807460022694B99
:1020D00002F078FA054602F01BFA10F5004F01DA1B
:1020E000674810E0A4F57A7002F041FA82460022B7
:1020F0005F4B02F0B5F8074600225E4B02F062FA31
:10210000054602F005FA60490860B3E154480079D9
:102110005349C97800EB012084B2A4F57A7002F02B
:1021200026FA82460022524B02F09AF80746002215
:10213000504B02F047FA054602F0EAF9B0F5004FBD
:1021400002DD4FF4004026E0A4F57A7002F00FFAA9
:1021500082460022464B02F083F805460022454B9A
:1021600002F030FA074602F0D3F910F5004F01DA19
:10217000434810E0A4F57A7002F0F9F9074600220E
:102180003B4B02F06DF8054600223A4B02F01AFA7A
:10219000824602F0BDF93D4908606BE130480079A4
:1021A0002F49C97800EB012084B2204602F0F6F9ED
:1021B000074600222E4B02F053F8824600222D4B98
:1021C00002F000FA054602F0A3F9B0F5A02F02DDF7
:1021D0004FF4A02023E0204602F0E0F90746002259
:1021E000234B02F03DF805460022224B02F0EAF9AB
:1021F000824602F08DF9002801DA00200FE0204627
:1022000002F0CCF907460022194B02F029F80546E6
:102210000022184B02F0D6F9824602F079F91C49E7
:10222000C86027E10E4800790D49C97800EB01200C
:1022300084B2204602F0B2F9824600220C4B02F032
:102240000FF8074600220B4B02F0BCF9054602F0DE
:102250005FF9B0F5004F1DDD4FF400403EE0000097
:102260001404002014000020B40122420000224285
:1022700000408F400000E04080000020200000204F
:102280000080FFFF180000201C0000202400002018
:10229000B0000020204602F081F905460022774B6D
:1022A00001F0DEFF07460022754B02F08BF98246F3
:1022B00002F02EF9002801DA00200FE0204602F09B
:1022C0006DF9824600226D4B01F0CAFF07460022DD
:1022D0006B4B02F077F9054602F01AF9694908617B
:1022E000C8E0694800796849C97800EB012084B2E8
:1022F000204602F053F907460022604B01F0B0FF80
:10230000824600225E4B02F05DF9054602F000F9BC
:10231000B0F5A02F02DD4FF4A02023E0204602F00C
:102320003DF982460022554B01F09AFF05460022F6
:10233000534B02F047F9074602F0EAF8002801DAA9
:1023400000200FE0204602F029F9824600224B4B84
:1023500001F086FF05460022494B02F033F907469B
:1023600002F0D6F84949C86084E0474800794649F8
:10237000C97800EB012084B2204602F00FF98246B2
:1023800000223E4B01F06CFF074600223C4B02F05E
:1023900019F9054602F0BCF8B0F5004F02DD4FF424
:1023A000004023E0204602F0F9F882460022334B39
:1023B00001F056FF07460022314B02F003F90546B3
:1023C00002F0A6F8002801DA00200FE0204602F013
:1023D000E5F882460022294B01F042FF0746002221
:1023E000274B02F0EFF8054602F092F82749086102
:1023F00040E0254800792449C97800EB012084B2E7
:10240000204602F0CBF8824600221C4B01F028FF48
:10241000074600221A4B02F0D5F8054602F078F87C
:102420001B49C86026E0184800791749C97800EBB5
:10243000012084B2204602F0B1F8824600220F4B00
:1024400001F00EFF074600220D4B02F0BBF80546D7
:1024500002F05EF80E4908610CE000F051FA0A48FB
:1024600000790C49087000BF00F030FA02E000F07B
:1024700047FA00BF00BFBDE8F09F000000408F405A
:102480000000E040B000002014040020E000002024
:10249000100100201500002070B514480088C4B257
:1024A0001248001D0088C5B204F02000A8B11049F0
:1024B0000878411C0E4A11700E490D5410460078E0
:1024C000082804DB00F028F800200949087040F2D1
:1024D0002551064800F045F807E004F0100020B14F
:1024E00040F22441014800F03CF870BD0048004033
:1024F0000C0000209406002001B527208DF8000074
:1025000001208DF801008DF802008DF80300684667
:10251000FEF7C0FD08BD704700B50021002200BFD6
:102520000A48405C552808D1084B481C185CAA286A
:1025300003D10846FFF7EFFF00E0521C0020034BD9
:102540005854052A00DB00BD00BFFCE794060020BC
:1025500001F40072B2F5007F00D100BFCA430280CF
:10256000704710B50022002340F66A14A14200D142
:1025700000BF0A1201249440A3B2DC43048010BDC2
:1025800021B1828942F40052828104E082894DF6B1
:10259000FF731A40828170471AB1838A0B4383828A
:1025A00002E0838A8B438382704770B50246002421
:1025B00000230025002040F66A16B14200D100BF7A
:1025C000C1F3421501F01F03012606FA03F3012DA2
:1025D00002D19689334006E0022D02D1168A33409B
:1025E00001E0968A33400C12012606FA04F416889C
:1025F000344013B10CB1012000E0002070BDF0B5F3
:102600000346002400260025002040F66A17B94240
:1026100000D100BF1846C1F3421401F01F06012784
:1026200007FA06F5012C01D10C3004E0022C01D18F
:10263000103000E014301AB107682F43076002E041
:102640000768AF430760F0BD2DE9F04786B0054647
:102650000E460024A24600BFA1460027B08900B163
:1026600000BF2F462C8A4CF6FF700440F0880443CC
:102670002C82AC894EF6F3100440B08831890843AF
:10268000718908430443AC81AC8A4FF6FF40044093
:10269000B0890443AC8201A8FEF79CFD1F48874225
:1026A00002D1DDF810A001E0DDF80CA0A88900F44B
:1026B000004040B10AEBCA0000EB0A103168490043
:1026C000B0FBF1F807E00AEBCA0000EB0A10316832
:1026D0008900B0FBF1F86420B8FBF0F00401200998
:1026E000642101FB1089A88900F4004040B1322028
:1026F00000EBC900B0FBF1F000F00700044308E074
:10270000322000EB09106421B0FBF1F000F00F0063
:1027100004432C8106B0BDE8F0870000003801407A
:1027200000BFFEE72DE9F74F8A4693463B48C0F8C5
:1027300000A0009801F032FF06460022384B01F05D
:102740008FFD04460022374B01F03CFF804601F02C
:10275000DFFE3249486000F0DDF833490870084672
:102760000078012806D12D48406800F500402B492B
:10277000486009E02C480078022805D127484068C5
:10278000A0F500402549486028480088401C80B2D8
:102790002649088058453EDD204800681F494968A1
:1027A000401A1E49C86108468068496A884208D1B3
:1027B0001A4AD1691069FDF7EDFD1849896A084484
:1027C00001E01648806A154908620846006A886276
:1027D0000A46D2690B461B6AD118104AD068FDF729
:1027E000D9FD0E4948620846406A4969884202DDBF
:1027F0000A4840690AE00948406A084989698842EC
:1028000002DA0648806901E00448406A03498860AA
:10281000002006490880BDE8FE8F000080000020EF
:102820000000B0400000E040400100204A010020CC
:1028300000200649086288620549086288620549E5
:10284000086288620449086288627047800000203C
:1028500010010020B0000020E000002012480078A5
:1028600000F0FB00104908700846007800F0FE00F8
:1028700008700846007800F0F700087000200B4947
:1028800008600B49086288620A49086288620A493E
:102890000862886209490862886209490870094922
:1028A000088009490880704714000020200000209B
:1028B0008000002010010020B0000020E000002077
:1028C00040010020480100204A0100200A48007809
:1028D000C0F3C00030B90848007840F00400064951
:1028E000087008E00448007840F0010002490870D0
:1028F000002002490860704714000020B401224201
:1029000000B5FFF7ABFF01200149086000BD0000E2
:10291000B40122421E4840681E490968081A05D5BC
:102920001B4840681B490968401A04E01848406881
:1029300018490968081A46F26661884221DD144880
:10294000406814490968081A46F26661884207DD42
:102950000F48406800F500400E49086001207047AC
:102960000B4840680B490968081A40F6CC41884278
:1029700007DA07484068A0F50040064908600220D1
:10298000EDE703484068034908600020E7E70000DE
:1029900080000020580100204FF400401C49C8600E
:1029A000002088600A2048600020086019480068FC
:1029B0001949C86019480068086146F266604861B4
:1029C00040428861164800681649C8601648006889
:1029D000086143F23330486140428861134800681F
:1029E0001349C86013480068086143F233304861F6
:1029F00040428861104800681049C860104800686B
:102A0000086143F2333048614042886170470000FA
:102A10004C0000202C00002080000020300000200E
:102A20003400002010010020380000203C0000206D
:102A3000B00000204000002044000020E000002002
:102A40004800002070B504460D464248C06842491F
:102A50004860084604603F480069404948600846AD
:102A600005603D4800683C494968401A3A49C861D8
:102A700008468068496A884208D1374AD169106996
:102A8000FDF788FC3449896A084401E03248806ACD
:102A9000314908620846006A88620A46D2690B46D4
:102AA0001B6AD1182C4AD068FDF774FC2A49486289
:102AB0000846406A4969884202DD274840690AE0C1
:102AC0002548406A24498969884202DA2248806997
:102AD00001E02148406A20498860204800681F4979
:102AE0004968401A1D49C86108468068496A884299
:102AF00008D11A4AD1691069FDF74CFC1749896A57
:102B0000084401E01548806A144908620846006AD2
:102B100088620A46D2690B461B6AD1180F4AD068F0
:102B2000FDF738FC0D4948620846406A4969884209
:102B300002DD0A4840690AE00848406A0749896995
:102B4000884202DA0548806901E00448406A034986
:102B5000886070BD60090020B0000020E000002007
:102B600010B56FF00400FEF715FC0A4800680A492A
:102B7000B0FBF1F0094908700846007800EB40010D
:102B8000C1EBC0104FF6FF7101EAC0000449088094
:102B900010BD00008001002000127A007C0100209E
:102BA0007E0100200146114A12884A434FF0E0237B
:102BB0005A6100229A611A46126942F001021A61B2
:102BC00000BF4FF0E022106900F001021AB100F4DA
:102BD0008032002AF5D04FF0E022126922F0010283
:102BE0004FF0E0231A6100229A6170477E010020B5
:102BF0000146114A12784A434FF0E0235A610022FD
:102C00009A611A46126942F001021A6100BF4FF040
:102C1000E022106900F001021AB100F48032002AAB
:102C2000F5D04FF0E022126922F001024FF0E023CC
:102C30001A6100229A6170477C01002008B56B463A
:102C400002220C213620FDF7F2FC9DF801009DF8D0
:102C5000001000EB012080B208BD00002DE9F04714
:102C60008246504601F09AFC8046084A084B01F023
:102C7000F7FA06460022074B01F0A4FC044601F0D7
:102C800047FC1FFA80FA5046BDE8F087CA54C1A835
:102C9000244982400000E04070B55F480088401C35
:102CA0005D49088000205D49886040F6CC40C860DE
:102CB00000200861084600F0BFF8584800685849ED
:102CC00008605648406848600846406848610846C1
:102CD000016846F6D960FDF75DFB5149496800EB94
:102CE00061004F498861084680694969401A4C492A
:102CF000C8610320088408468069002803DD08466F
:102D0000008C401E01E04648008C45490884084676
:102D1000C069002803DD0846008C401E01E04048E1
:102D2000008C3F49088408464069002804DA0846B8
:102D3000008CC0F1070001E03948008C3849088454
:102D40000846008C012803D00846008C04280ED1C8
:102D5000334880693249886008464069C969401A29
:102D60002F49C860084680694042086125E02C4828
:102D7000008C022803D02A48008C05280ED1284850
:102D8000C06927498969084425498860084640691F
:102D9000C86008464069404208610EE02048C069AA
:102DA0001F4988600846C0694042C86008464069BB
:102DB0008969084440421A4908610120194908609C
:102DC00000F066FA16488168012000F09DFA144868
:102DD000C168022000F098FA11480169032000F050
:102DE00093FA0D48008810490988884213DDFFF7DF
:102DF00025FF0546FFF732FF04460C49FDF7CAFAE6
:102E00000B4908600020044908800A48007840F017
:102E100008000849087070BD500100201409002006
:102E200028090020AC012142160000200080FFFF8D
:102E300028000020140000202DE9F0410446A0687D
:102E4000FDF7B0FA0646A068FDF71CFA05462946CC
:102E5000E068FDF79FFA074631462069FDF79AFAC8
:102E6000381A206029462069FDF794FA0746314652
:102E7000E068FDF78FFA38446060BDE8F081FEF746
:102E80009FFAFFF76DFEFFF787FDFEF7A1F8FDF74C
:102E900023FEFDF707FC48214FF49670FEF774FC03
:102EA000FDF77CFF4FF4612000F0A4FC00F0F8F97E
:102EB00001E000F0EFFCFCE72DE9F04F85B04FF0AA
:102EC000000BFFF7BBFE8246BE480078032806D100
:102ED0001FFA8AF00322BC490968FFF723FCB948AE
:102EE0000078022805D10122B8480168504600F058
:102EF000F5FAB4480078032806D1B5488068414205
:102F00000122504600F0EAFA1FFA8AF0FFF7A6FE07
:102F1000B049096800EB010A0120FDF7E5FE0190C8
:102F200001F03CFB0022AC4BCDE9020101F048FC72
:102F30008046AA4AAA4B01F093F906460022A94B03
:102F400001F040FB044601F0E3FAA74908600420C1
:102F5000FDF7E4FE019001F021FB06460022A34BA1
:102F600001F02EFC04469D4A9D4B01F079F90022A8
:102F70009C4BCDE9020101F025FB804601F0C8FA27
:102F8000994948600846006840424968401A964995
:102F9000886008460068C8600968934A526801EB77
:102FA000420044F6E611FDF7F5F98F49086108463D
:102FB000C0688F4908608C48006948605046FDF73A
:102FC000F1F98B4948615046FDF75CF98849886101
:102FD0000A4691691068FDF7DDF90446844A516993
:102FE0005068FDF7D7F920448149C8600A469169C5
:102FF0005068FDF7CFF904467D4A51691068FDF726
:10300000C9F9201A7A4908617A484142784ACDE9DB
:103010000310103207CA8DE8070075480FC800F08A
:10302000FDF868480078012804D0022806D003285B
:103030000ED108E07048D0F800B00CE06F4880680E
:10304000C0F1000B07E06D488068C0F1000B02E0A2
:103050004FF0000B00BF00BF594669480068FFF7FA
:10306000F1FC6848C0F808A0674880686549C860F6
:103070006648806808610846FFF7DEFE6148006820
:10308000634908605F484068486008464068486196
:103090000846016846F6D960FDF77CF95C49496845
:1030A00000EB61005A498861084680694969401A05
:1030B0005749C8610320088408468069002803DD59
:1030C0000846008C401E01E05148008C504908849D
:1030D0000846C069002803DD0846008C401E01E058
:1030E0004B48008C4A49088408464069002804DAA5
:1030F0000846008CC0F1070001E04548008C4449B7
:1031000008840846008C012803D00846008C042857
:103110000ED13F4880693E49886008464069C969C8
:10312000401A3B49C860084680694042086125E072
:103130003748008C022803D03548008C05280ED172
:103140003348C06932498969084431498860084672
:103150004069C86008464069404208610EE02C485A
:10316000C0692B4988600846C0694042C86008466B
:10317000406989690844404225490861254800782A
:1031800000F00100C8B123480078C0F3C000A0B12E
:1031900001202149086000F07BF81D48816801206A
:1031A00000F0B2F81A48C168022000F0ADF81848E3
:1031B0000169032000F0A8F801E0FFF74FFB05B01C
:1031C000BDE8F08F15000020200000202400002022
:1031D00080000020280000200000A04083C0CAA179
:1031E00045138D400000E0404C0900200002A04043
:1031F000600900200040FFFF1C000020100100209B
:103200001800002014090020B0000020E000002079
:103210002809002014000020AC0121420FB430B571
:10322000DDE90A540698A84220DC0698A0421DDB7E
:103230000798A8421ADC0798A04217DB0E480068DE
:10324000A84213DC0C480068A0420FDB0A48406823
:10325000A8420BDC08484068A04207DB06488068AB
:10326000A84203DC04488068A04201DAFFF748FB6B
:1032700030BC5DF814FB00004C09002070470000D2
:1032800010B500210148FEF70BFB10BD002C0140DA
:1032900010B501210148FEF703FB10BD002C0140D1
:1032A00010B500F029F800F005F8FFF7E7FF00F08F
:1032B00065F810BD08B54FF4E060ADF800001820C7
:1032C0008DF8030003208DF8020069460848FDF7D9
:1032D0007DFC4FF46040ADF8000018208DF803002D
:1032E00003208DF8020069460248FDF76FFC08BD17
:1032F00000080140000C014010B5012140F60D000E
:10330000FDF748FF10BD00002DE9F04705460E46C9
:103310003046FDF757FE06463046FDF781F88246F7
:1033200013480088134991FBF0F0A0F101094846C9
:1033300001F0A0FC8046514601F0C8FC074601F0B0
:1033400079FC84B2012D04D0022D05D0032D0BD1C0
:1033500006E00948048007E00748001D048003E0F8
:1033600005480830048000BF00BFBDE8F0870000BA
:103370001600002000A24A04342C014070B58CB025
:1033800000BF00BF00BF52480088524991FBF0F0D7
:10339000801E00EB800000016421B0FBF1F084B2DC
:1033A0004B4800884B4991FBF0F0801E00EB8000F9
:1033B00000016421B0FBF1F085B245480088454921
:1033C00091FBF0F0801E00EB800000016421B0FB57
:1033D000F1F086B24048FEF773FA3D4800883D4957
:1033E00091FBF0F0401E80B2ADF828000020ADF84F
:1033F00024004020ADF826000020ADF82A008DF80A
:103400002C0009A93448FEF779FC01213248FEF767
:1034100038FA012211463048FEF757FB0820FDF725
:103420000AFE6020ADF814000120ADF8160004205B
:10343000ADF81800ADF81A400020ADF81C00ADF84A
:103440001E00ADF82000ADF8220005A92248FEF7C5
:1034500045FBADF81A5005A91F48FEF795FBADF8DE
:103460001A6005A91C48FEF7EFFB08211A48FEF771
:1034700081FB08211848FEF7D9FB08211648FEF702
:1034800033FC4FF40060ADF804004010ADF80600C6
:103490000020ADF80800CE20ADF80A000020ADF8FD
:1034A0000C00ADF80E00ADF8100001A90A48FEF7B7
:1034B000CCF901210848FEF7D8F901210648FEF7AA
:1034C000E3F901210448FEF7EBF90CB070BD0000F0
:1034D0001600002000A24A04002C01402DE9F0470C
:1034E00005460E46144630480088401C2E49088088
:1034F00008460088A04254DB2C480660204601F0B4
:10350000D1FB80462A48008801F0CCFB8146414629
:1035100001F0CEFA0746394628B200F04DF82349AB
:103520004860084600684968401A2049C861084652
:103530008068496A884208D11C4AD1691069FCF741
:1035400029FF1A49896A084401E01848806A174926
:1035500008620846006A88620A46D2690B461B6AFE
:10356000D118124AD068FCF715FF10494862084686
:10357000406A4969884202DD0C4840690AE00B480C
:10358000406A0A498969884202DA0848806901E08C
:103590000648406A054988600020034908800549BB
:1035A0000860BDE8F08700004801002010010020FD
:1035B000160000204C0100202DE9FF5F04468946DB
:1035C00055480088401C5449088054480088001B16
:1035D00000B2534908800846B0F90000B0F57A7F80
:1035E00006DD0846B0F90000C0F5805000B2088042
:1035F0004B48B0F9000010F57A7F07DA4848008898
:103600004042A0F5805000B2454908804449B1F9D4
:103610000000002801DB014600E04142962943DA20
:10362000404800883E490988084400B23D49088066
:1036300039480088192866DD3748008801F032FBD8
:103640004946009001F034FA019001F0A3F90746D1
:103650000022354B00F0B6FF05460022334B00F048
:10366000B1FF824600F054FF03902E48B0F90000ED
:1036700000F07DFF824600222D4B00F0F1FD074651
:1036800000222A4B00F09EFF054600F041FF029009
:103690000399FCF737FE00B22649088000201E4936
:1036A0000880204908802EE000201E4908804846F6
:1036B00001F070F9824652460B4600201A4900F08C
:1036C000CFFD07460022194B00F07CFF054600F0B5
:1036D0001FFF03901248B0F9000000F048FF0546B4
:1036E0000022134B00F0BCFD074600220F4B00F0F8
:1036F00069FF824600F00CFF02900399FCF702FE7E
:1037000000B20C490880054804800A48B0F900005E
:1037100004B0BDE8F09F00004601002042010020F7
:103720005E01002044010020000049400000E0400C
:103730000000B0405C01002000B58BB02948FDF7C7
:1037400053F828481438FDF74FF801210846FDF7D3
:10375000F1FC25480090254801901020029000209F
:103760000390049080200590002006900790089018
:103770004FF40050099000200A9069461948FDF75F
:10378000F8F8194800901A4801900020029040F281
:103790003E30039000200490802005900020069089
:1037A000079008904FF40050099000200A90694655
:1037B0000C481438FDF7DDF80122C0210A48001F2B
:1037C000FEF7EAFE012202210648FDF7C9F80121B1
:1037D00004481438FCF7FCFF00210248FCF7F8FF0E
:1037E0000BB000BD8000024004440040BA0C002031
:1037F0001404002010B586B0044601210420FDF712
:10380000C9FC01214804FDF7A5FC18208DF817001C
:103810000420ADF8140003208DF8160005A91B48FC
:10382000FDF7D4F948208DF817000820ADF81400F2
:1038300003208DF8160005A91448FDF7C7F90C20E0
:10384000ADF80E0001940020ADF80800ADF80A00B4
:10385000ADF80C00ADF8100001A90D48FEF7F4FE1C
:103860000420FDF7E8FBFFF767FF012240F2244147
:103870000748FEF7C4FE01210548FEF781FE4021FE
:103880000348FEF765FE06B010BD000000080140C9
:103890000044004010B508480078012804D100F029
:1038A00021F800200449087004480078012802D15A
:1038B00000200249087010BD600100206601002050
:1038C00010B500210648FCF783FF40F23E31044862
:1038D000FDF76DF801210248FCF77AFF10BD0000EA
:1038E0006C00024010B500210648FCF771FF064845
:1038F00001880448FDF75BF801210248FCF768FFE6
:1039000010BD0000800002406401002000000000A3
:10391000C60FC900101F9201622D5B02403A2403BA
:103920002D45ED03AF4DB60448537F057E5548063F
:10393000D3531107CC4DDA07EE42A308BB326C0912
:10394000B81C350A6900FE0A53DDC60BF9B28F0CAC
:10395000DF80580D8946210E7D03EA0E3DB7B20F78
:103960004E617B103501441175960C129320D512CF
:10397000139F9D13791166144A772E150BD0F615F7
:103980003E1BBF166A58871713874F18BCA6171916
:10399000EBB6DF1924B7A71AECA66F1BC885371C36
:1039A0003B53FF1CCC0EC71DFEB78E1E574E561F35
:1039B0005BD11D208F40E520799BAC219EE17322D5
:1039C00081123B23AA2D02249C32C924DD2090259C
:1039D000F3F7562662B71D27B05EE42762EDAA28EA
:1039E000FF6271290BBF372A0D01FE2A8928C42BDB
:1039F00006358A2C0A26502D1AFB152EBDB3DB2E58
:103A0000784FA12FD1CD6630502E2C317970F13105
:103A1000D393B632E6977B33367C40344B40053542
:103A2000ACE3C935DE658E366AC65237D504173821
:103A3000A720DB3866199F399AEE623ACB9F263B66
:103A40007E2CEA3B3C94AD3C8CD6703DF6F2333E86
:103A500001E9F63E36B8B93F1B607C4039E03E4193
:103A6000183801423F67C342386D85438B4947444C
:103A7000BFFB08455E83CA45F0DF8B46FD104D470E
:103A80000F160E48AFEECE48659A8F49BB18504AC4
:103A90003A69104B6C8BD04BD97E904C0C43504DF7
:103AA0008DD70F4EE83BCF4EA66F8E4F50724D50C4
:103AB00072430C5195E2CA51444F89520A894753C7
:103AC000708F05540362C3544C008155D7693E562C
:103AD0002E9EFB56DE9CB8577265755875F73159A6
:103AE0007352EE59F775AA5A8E61665BC414225C54
:103AF000258FDD5C3DD0985D98D7535EC4A40E5FE2
:103B00004E37C95FC18E8360ACAA3D619B8AF76165
:103B10001B2EB162BB946A6308BE23648FA9DC6468
:103B2000DF56956585C54D6610F505670FE5BD67E0
:103B30000F9575689F042D694F33E469AE209B6A29
:103B400049CC516BB235086C775CBE6C2840746D03
:103B500054E0296E8C3CDF6E6054946F602749708E
:103B60001DB5FD7026FDB1710EFF657265BA197342
:103B7000BC2ECD73A45B8074AF4033756EDDE575EC
:103B800074319876523C4A779BFDFB77E074AD78B0
:103B9000B5A15E79AC830F7A581AC07A4C65707BF8
:103BA0001B64207C5916D07C997B7F7D70932E7E80
:103BB000715DDD7E30D98B7F41063A803AE4E78043
:103BC000AF72958135B14282629FEF82C93C9C837E
:103BD00002894884A183F4843C2CA0856B824B86A7
:103BE000C285F686D935A18747924B88A19AF58878
:103BF0007F4E9F897AAD488A27B7F18A1F6B9A8BCF
:103C0000FAC8428C50D0EA8CB980928DCDD9398EC9
:103C100027DBE08E5E84878F0CD52D90CACCD390A5
:103C2000316B7991DDAF1E92669AC392672A6893D1
:103C30007A5F0C943B39B09444B7539530D9F695DC
:103C40009A9E99961F073C975A12DE97E7BF7F9876
:103C5000620F21996800C2999692629A88C5029B68
:103C6000DC98A29B2F0C429C1F1FE19C49D17F9D99
:103C70004C221E9EC611BC9E569F599F9ACAF69F03
:103C8000329393A0BCF82FA1D9FACBA1289967A2AF
:103C900049D302A3DDA89DA3831938A4DD24D2A4AF
:103CA0008BCA6BA52F0A05A66BE39DA6DF5536A729
:103CB0002E61CEA7FB0466A8E740FDA8951494A941
:103CC000A97F2AAAC581C0AA8D1A56ABA449EBAB1D
:103CD000B00E80AC536914AD3259A8ADF3DD3BAEE4
:103CE0003AF7CEAEACA461AFEFE5F3AFA9BA85B0B9
:103CF0007F2217B1191DA8B11CAA38B230C9C8B2A9
:103D0000FB7958B325BCE7B3558F76B434F304B5CB
:103D100069E792B59E6B20B67A7FADB6A7223AB717
:103D2000CE54C6B7991552B8B064DDB8BF4168B972
:103D300070ACF2B96DA47CBA622906BBF83A8FBBAD
:103D4000DDD817BCBA02A0BC3EB827BD13F9AEBD82
:103D5000E7C435BE661BBCBE3EFC41BF1B67C7BF88
:103D6000AB5B4CC09ED9D0C0A0E054C16070D8C13C
:103D70008D885BC2D728DEC2ED5060C37E00E2C3EF
:103D80003A3763C4D2F4E3C4F73864C55903E4C5D1
:103D9000A95363C69929E2C6DA8460C71F65DEC7E6
:103DA0001BCA5BC87FB3D8C8FE2055C94D12D1C904
:103DB0001D874CCA247FC7CA16FA41CBA6F7BBCBD6
:103DC0008A7735CC7779AECC21FD26CD40029FCDC8
:103DD000888816CEAF8F8DCE6E1704CF791F7ACF1D
:103DE0008AA7EFCF56AF64D09636D9D0023D4DD1D9
:103DF00053C2C0D141C633D28548A6D2D84818D3C1
:103E0000F5C689D395C2FAD3733B6BD44831DBD462
:103E1000D1A34AD5C992B9D5EAFD27D6F1E495D602
:103E20009A4703D7A22570D7C57EDCD7C15248D8A0
:103E300052A1B3D8386A1ED930AD88D9F869F2D901
:103E40004FA05BDAF54FC4DAA8782CDB291A94DB93
:103E50003734FBDB94C661DCFFD0C7DC3A532DDD81
:103E6000064D92DD25BEF6DD58A65ADE6305BEDEA0
:103E700009DB20DF0B2783DF2DE9E4DF342146E077
:103E8000E2CEA6E0FDF106E14A8A66E18C97C5E143
:103E90008A1924E2091082E2D07ADFE2A4593CE3D5
:103EA0004DAC98E39172F4E338AC4FE40A59AAE4BC
:103EB000CE7804E54D0B5EE55010B7E5A0870FE620
:103EC000067167E64CCCBEE63D9915E7A2D76BE7D5
:103ED0004687C1E7F6A716E87B396BE8A23BBFE847
:103EE00037AE12E9079165E9DEE3B7E98AA609EA88
:103EF000D9D85AEA977AABEA948BFBEA9E0B4BEB44
:103F000084FA99EB1658E8EB222436EC7A5E83ECBF
:103F1000EC06D0EC4B1D1CED67A167ED1293B2EDE2
:103F20001DF2FCED5ABE46EE9CF78FEEB69DD8EE24
:103F30007BB020EFBF2F68EF551BAFEF1173F5EF8C
:103F4000C9363BF0516680F07F01C5F0280809F1C1
:103F5000227A4CF144578FF1649FD1F1595213F2F8
:103F6000FC6F54F224F894F2A8EAD4F2624714F3F6
:103F70002B0E53F3DB3E91F34DD9CEF35ADD0BF408
:103F8000DD4A48F4B12184F4B061BFF4B60AFAF412
:103F90009F1C34F547976DF58B7AA6F547C6DEF57D
:103FA000597A16F69E964DF6F51A84F63B07BAF640
:103FB000505BEFF6131724F7633A58F71FC58BF7DA
:103FC00029B7BEF76010F1F7A6D022F8DDF753F855
:103FD000E48584F8A07AB4F8F1D5E3F8BC9712F937
:103FE000E2BF40F9484E6EF9D2429BF9639DC7F992
:103FF000E15DF3F930841EFA361049FAD80173FAFC
:10400000FD589CFA8C15C5FA6A37EDFA80BE14FB90
:10401000B4AA3BFBF0FB61FB1AB287FB1DCDACFBE6
:10402000E14CD1FB4F31F5FB527A18FCD4273BFC15
:10403000BE395DFCFDAF7EFC7C8A9FFC26C9BFFCBF
:10404000E86BDFFCAD72FEFC64DD1CFDF8AB3AFDF5
:1040500058DE57FD727474FD346E90FD8DCBABFD50
:104060006B8CC6FDBFB0E0FD7838FAFD872313FEE8
:10407000DC712BFE682343FE1D385AFEEBAF70FE49
:10408000C78A86FEA1C89BFE6D69B0FE1F6DC4FE87
:10409000A9D3D7FE009DEAFE18C9FCFEE6570EFF25
:1040A0005F491FFF799D2FFF2A543FFF686D4EFF28
:1040B0002AE95CFF66C76AFF140878FF2CAB84FF0F
:1040C000A7B090FF7C189CFFA6E2A6FF1C0FB1FFD3
:1040D000D99DBAFFD78EC3FF10E2CBFF8097D3FFE5
:1040E00021AFDAFFF028E1FFE704E7FF0443ECFF2C
:1040F00044E3F0FFA2E5F4FF1E4AF8FFB510FBFF12
:104100006539FDFF2CC4FEFF0BB1FFFFFFFFFFFF72
:1041100010B591EA030F48BF83F0004300F15883C4
:10412000841A71EB030C05D2121943EB0C03001B2C
:1041300061EB0C01DFF824E14FEA1154A4EB135CAE
:104140001EEA430F18BF9EEA445F73D023EA0E03B2
:10415000DCF1200E21EA045143F4801332D322FA19
:104160000CFE10EB0E0023FA0CFE41EB0E01CCF11D
:10417000200E03FA0EFE10EB0E0051F10001B1F516
:10418000801FCCF1200E32D201EB045112FA0EF254
:10419000BDE8104058BF7047401C38BF5FEA42027C
:1041A00018BF7047002814BF20F0010041F1000142
:1041B0004FEA410313F5001F38BF7047A1F1C0411A
:1041C00000F0F8BA012A43EB0302ACF1200CDCF159
:1041D0001F0E32BF4FF0000E23FA0CF310EB03005A
:1041E00041EB0451B4EB115FD0D0A1EB045101F5C8
:1041F000801149085FEA300001EB04510ED350F101
:10420000000038BF12FA0EFE08D1BDE81040C9E721
:10421000401C38BF5FEA4202CAD1C3E7BDE8104084
:104220004FEA410313F5001F38BF7047A1F1C041A9
:1042300000F0C0BA9EEA445F08D011EA5E0FBDE804
:10424000104004BF01F0004100207047BDE810405D
:1042500070B500F061FA00BF64FBBE3E0000E0FFF5
:104260002DE9C04130B4DFF8A0C23CEA111418BFF8
:104270003CEA131400F0EC8081EA03051CEA1114F7
:1042800044EAD57418BF1CEA131500F0C780A4EBEC
:1042900005044FF0004545EAC12145EAC32341EA40
:1042A000505143EA525304F17F74994204F50034AB
:1042B0004FEAC0204FEAC22208BF904200F09C8023
:1042C0004FEA13650FF24016765D4FEA134506FB81
:1042D00005F7C7F1807706FB07F74FEAD737A7FB4B
:1042E00003687642C8F58038A7FB06CE38BFA8F130
:1042F000010807FB08E64FF0000EA6FB028CE6FB68
:1043000003CEDCF1000CCEF1004E38BFAEF1010E51
:10431000A6FB0C584FF000074FF00005E6FB0E8798
:10432000A1FB08C6A0FB07CE16EB0E0645F1000563
:10433000E1FB076515F1E04E7EBFA4F580345FEA2E
:1043400046066D4116F1800745F100054FEA172733
:104350004FEA066647EA0567A6F1DE46B6F1805FDA
:104360004FEA15251FD9384624F0010C05EBC4711E
:10437000BCF1FE6F01EB0C1102D8F0BCBDE800816E
:1043800024425CBF01F5801E9EEAC47F02D4F0BCCB
:10439000BDE80081244238D4F0BCA1F1C041BDE8A1
:1043A000004100F007BA4FEAD22242EA43524FEAF4
:1043B000D323A7FB02864FEAD02040EA415007FBF7
:1043C00003661EEA0E0F4FEAD12105FB026658BFB5
:1043D000A6EB0056B6EB00564FEA520E4EEAC37EED
:1043E00018EB0E0E56EB530EBDD518EB02085E41CE
:1043F0007F1C55F10005B6E74FF480154FF000071C
:104400004FF000064FF00008ADE7F0BC4FF00000A1
:1044100001F1C04101F00041BDE8008111EA0C1F2B
:104420000CEA131500D00CE013EA0C1F00F02580F5
:104430004FF00000F0BC81EA030101F00041BDE84B
:104440000081F0BCBDE8004181EA030100F0B2B98F
:10445000F0BCBDE8004170B500F05EF9097EFC3E9D
:1044600000F007B881EA03014FF0000001F00041BD
:10447000704781EA030100F09DB9F0BCBDE800413E
:104480004FF0000021497047FFFDFBF9F7F5F4F20A
:10449000F0EEEDEBE9E8E6E4E3E1E0DEDDDBDAD8DF
:1044A000D7D5D4D3D1D0CFCDCCCBCAC8C7C6C5C43D
:1044B000C2C1C0BFBEBDBCBBBAB9B8B7B6B5B4B354
:1044C000B2B1B0AFAEADACABAAA9A8A8A7A6A5A43F
:1044D000A3A3A2A1A09F9F9E9D9C9C9B9A99999803
:1044E0009797969595949393929191908F8F8E8EA6
:1044F0008D8C8C8B8B8A8989888887878685858433
:1045000084838382828181800000FF070000F87F1E
:104510004FEA41034FEA5353A3F58063D3F11E03DF
:10452000C8BFD3F1210C0CDD4FF0004242EAC1229A
:1045300042EA505232FA03FC8CEAE17CACEBE170C7
:104540007047102BC4BF0020704703F5787CBCF186
:10455000FF3F04D06FF0004282EA2100704770B53F
:1045600000F0DAF84992248000207047F2E710F05A
:10457000004248BF4042B0FA80F310FA03F10AD07B
:10458000C3F11D0303F580634FEA415002EB035270
:1045900002EBD12170474FF000007047B0FA80F372
:1045A00010FA03F10AD0C3F11D0303F580634FEA4B
:1045B00041504FEA035202EBD12170474FF0000007
:1045C00070470000DFF848C170B51CEA111E1EBF1D
:1045D0001CEA13159EEA0C0F95EA0C0F00F06F8091
:1045E00081EA030423EA4C134EEAD47E21EA4C11FB
:1045F00041F4801143F48013AE44A1FB024CA0FBB4
:104600000365AEF17F7E361955EB0C05A1FB034C1B
:104610004CF10003A0FB021C16EB0C06654153F1A4
:104620000003094218BF46F0010613F4007F0BD1C6
:104630004FEA03314FEA0530340341EA155140EAAD
:1046400016506FF003020AE04FEAC3214FEAC5207B
:10465000F40241EA555140EA56506FF0020202EB73
:104660002E4201EB025585EACE710AD05FEA440C76
:1046700018BF24F0004450F1000041F1000120EA8D
:10468000D47040F2FE7C624500D270BDA84214BFD7
:104690004FF080444FF04044002E08BF0024BEF18C
:1046A000806FA8BFA1F1C041BDE8704080F2828058
:1046B0004FF0000001F1C04101F0004170479EEA57
:1046C0000C0F0CEA131518BF95EA0C0F06D04FF02B
:1046D000000081EA030E0EF0004170BD00F01CF8EE
:1046E0008900013E00F007B800F009B84FEA430C1A
:1046F0005FEA5C5C08D081EA030100F05BB84FEA36
:10470000410C5FEA5C5CF6D14FF000000149704754
:104710000000FF070000F87F0EF1020E2EF0030EDE
:104720005EF8046B364205D4012A43EB030515F508
:10473000001F12D8012841EB010C1CF5001F0CD8FA
:104740000ED14FEAD17C15F5001F0CEB4C0C0CF18F
:10475000020C08BF4CEBD37C04E04FF0080C01E0E6
:104760004FEAD37C0CEB4C0526FA05F606F007065B
:10477000B6F1040C06D20EEB860CBDE870404CF08E
:10478000010C6047DFE80CF0090B02024FF000411A
:104790004FF00000A1F5002170BD19461046012818
:1047A00051EB010418BFD4F5001484BF002001F0C0
:1047B000004170BD0808A0F500114FEA31017047B3
:1047C00010B591EA030F48BF83F000433FF5A8AC52
:1047D000841A71EB030C07D212198CF0004C43EBD6
:1047E0000C03001B61EB0C01DFF8A4E14FEA11544C
:1047F000A4EB135C1EEA430F18BF9EEA445F00F06F
:10480000B08023EA6E03524221EA0451C3EB6E03E7
:1048100038BF5B1EDCF1200E25D322FA0CFE10EB14
:104820000E0043FA0CFE41EB0E01CCF1200E03FA10
:104830000EFE10EB0E0051F10001CCF1200E29D438
:1048400012FA0EF201EB0451BDE8104058BF704758
:10485000401C1CBFB2F1004F704700280CBF491C20
:1048600020F00100704712EB020E43EB030218BF69
:104870004FF0010E4EEA4202ACF1200CDCF11E0EAC
:1048800054D943FA0CFE10EB0E0051F1FF31CCF17C
:104890001E0ED5D50EF1010E12FA0EFE404141EB6F
:1048A000010101EB445C5FEA5C5C10D910EBDE7047
:1048B00001EB045138BFBEF1004FBDE8104018BFF6
:1048C000704700280CBF491C20F00100704730D20F
:1048D0004FEAD42C11F5001124F400641BD0B1FA76
:1048E00081F20B3AA41AA41ED2F12003914030FAAF
:1048F00003F31943904001EBCC71002C01EB045100
:10490000BDE81040A8BF704701F1C0414FF0000062
:1049100001F000417047B0FA80F310FA03F100D1C2
:1049200010BDE41A173C4805C90AE4E701EB04513D
:1049300010BD491001EB0451BDE810404FEA3000B2
:1049400002E04FF0000170474A0008BF0042F8D073
:10495000B2F5001F28BF704701F000414FF0000082
:1049600070479EEA445F07D011EA5E0FBDE8104031
:1049700004BF002100207047BDE8104070B5FFF76C
:10498000CBFE00BF40DFF63E83F00041104670478B
:104990000000E0FF43004FEAD30C4FEA3C0C4340D9
:1049A0001FBF40070CF1605113F0FE4F70471CF021
:1049B000006F03D100200CF0004170470CF0004361
:1049C00043EA507010B540EACC0000F000FA00BF96
:1049D000000000924FEA0001FFF7ECBE4FF00041EB
:1049E0004FF00000A1F500217047000090EA010F90
:1049F00048BF81F0004100F13C82421A3CBF801A5E
:104A000089184FEAD0524FF07F4C1CEA410FA2EBBD
:104A1000D15318BF9CEA026F00F03B804FF0004C6E
:104A20004CEA00204CEA012121FA03FC10EB0C0CAB
:104A30001ED202F1FF325FEA1C2040EBC25038BFA9
:104A400070471CF07F0F4FEA400C18BFBCF17F4F3E
:104A500038BF7047C3F12003994008BF20F0010020
:104A6000BCF17F4F38BF7047A0F1C04000F0F5B9EE
:104A70004FEA3C00000A40EBC25028BF1CF0FF0F79
:104A80004FEA400CE6D018BFBCF17F4F38BF7047EB
:104A9000EAE79CEA026F05D010EA5C0F08BF00F05D
:104AA0000040704710B500F092F900BF64FBBE3EB5
:104AB0004FF47F0C1CEAD0121EBF1CEAD11392EAFD
:104AC0000C0F93EA0C0F00F0858090EA010F48BFAD
:104AD00042F4807240F4000C41F400002CF07F415D
:104AE00020F07F4000B58142A2EB03020FF2081CC8
:104AF000ACEB504EC0F100009EF800E04FEA4E0EC5
:104B000000FB0EFC38BF49004FEA2C1C02F5FA02EC
:104B10000CFB0EF34FEACE1E4FEA112C4FEAC121D7
:104B20000EEB635E42EB22420EFB0CFC4FEA1C5381
:104B300000FB03114FEA112C4FEA01310EFB0CFC74
:104B40004FEADC4C00FB0C11C14228BF09184CEBAA
:104B500003335DF804EB10EB410143EBC250B2F5B7
:104B60007C0F38BF704729D512F0F00F1CBF00F141
:104B7000C04000F0004070470081828384858687B2
:104B800088898B8C8D8E8F919293959697999A9C0C
:104B90009D9FA0A2A3A5A7A8AAACAEB0B2B3B5B77B
:104BA000B9BCBEC0C2C5C7C9CCCED1D4D7D9DCDF51
:104BB000E2E6E9ECF0F3F7FAFE0000004FEA400C01
:104BC0000CF1807CBCF17E4F28BF7047B0F1C04033
:104BD00000F043B990EA010F0CEAD11348BF42F448
:104BE0008072624538BF634507D213F47F0F16D039
:104BF00080EA010000F00040704710B500F0E7F8CF
:104C0000097EFC3E00F005B880EA010000F000409B
:104C1000704780EA010000F0004000F01EB912F475
:104C20007F0F04BF0248704780EA010000F015B909
:104C30000000C07FC10DD1F19E0206DB4FEA0023C8
:104C400043F0004323FA02F07047004207D54FEAD1
:104C50004001B1F1FE4F02D24FF00000704710B595
:104C600000F0B5F849922480002070476FEA2000D8
:104C70007047000010F0004148BF4042B0FA80F396
:104C800010FA03F2C3F19D030BD051EAC35101EBBB
:104C90001220530638BF704700F1010008BF20F012
:104CA00001007047B0FA80F310FA03F2C3F19D03DC
:104CB0000AD0D90501EB1220530638BF704700F126
:104CC000010008BF20F00100704700004FF47F0C86
:104CD0001CEAD0121EBF1CEAD11392EA0C0F93EA11
:104CE0000C0F00F0478090EA010F48BF42F4807239
:104CF0004FF0004C4CEA00204CEA012102EB030289
:104D0000A0FB0113A2F50002002918BF43F0010324
:104D10005B0028BF4FEA330342EB22425FEA132CC9
:104D20004CEBC2502EBFBCEB436FB2F57C0F70470B
:104D30004FEA036CBCF1004F08BF20F00100B2F550
:104D40007C0F38BF70470BD582F0FF0212F5803F11
:104D5000C8BF704700F1C040D8BF00F000407047A6
:104D600000F5000C5FEA4C0C48BF7047B0F1C04042
:104D700000F073B890EA010F0CEAD11348BF42F477
:104D80008072624538BF634504D280EA010000F0BA
:104D90000040704710B500F01AF800BF8900013ECE
:104DA00000F007B800F009B85FEA410C5FEA1C6C3C
:104DB00008D080EA010000F050B85FEA400C5FEADA
:104DC0001C6CF6D14FF00040A0F5800070470EF14A
:104DD000020E2EF0030E5EF8044B244204D44FEA78
:104DE0004102B2F17F4F11D84FEA4003B3F17F4F38
:104DF0000CD80ED14FEAD07CB2F17F4F0CEB4C0CAB
:104E00000CF1020C08BF4CEBD17C04E04FF0080C15
:104E100001E04FEAD17C0CEB4C0324FA03F404F0DC
:104E20000704B4F1040C06D20EEB840CBDE810406C
:104E30004CF0010C6047DFE80CF0070802024FF06D
:104E40000040A0F5800010BD0846420018BFD2F116
:104E5000807288BF00F0004010BDFF2141EAD050B1
:104E6000C005704790EA010F48BF81F000413FF54F
:104E7000C4AD421A04D882F00042A0EB02001144F3
:104E80004FEAD0524FF07F4C1CEA410FA2EBD153B6
:104E900018BF9CEA026F4AD04FF0004C4CEA002049
:104EA0004CEA012121FA03FCB0EB0C0C0FD412F0F8
:104EB000FE0F36D05FEA4C001DD5001240EBC25009
:104EC00038BF70471CF03F0F18BF70470BE0A2F1CE
:104ED00001025FEA1C2040EBC25038BF70471CF053
:104EE0007F0F18BF7047C3F12003994014BF401EC5
:104EF00020F00100704780084FEA122308BF704776
:104F0000B0FA80FCA2EB0C02CCF1280C60FA0CF099
:104F100093EA122F04BF00EBC25070474FEAC370F0
:104F20007047130A5FEADC1008BF7047F6E79CEA97
:104F3000026F04D010EA5C0F08BF0020704710B564
:104F4000FFF745FF40DFF63E81F00040704700006C
:104F5000704F0008000000209401000028010008A4
:104F6000C04F000894010020C41400008401000810
:104F700001164388132399194BCC0C0425C9CEFF85
:104F8000FF620222C032204B3333084BCC4C084125
:104F900042051A802C021B80691CE924A9182944A7
:104FA000091638099630011E2D0102030404600918
:104FB0000607080902040608ACA24A0421291D00BC
:04000005080000ED02
:00000001FF
